{
  "_format": "hh-sol-artifact-1",
  "contractName": "WavePortal",
  "sourceName": "contracts/WavePortal.sol",
  "abi": [
    {
      "inputs": [],
      "stateMutability": "nonpayable",
      "type": "constructor"
    },
    {
      "inputs": [],
      "name": "getAllWavers",
      "outputs": [
        {
          "internalType": "address[]",
          "name": "",
          "type": "address[]"
        },
        {
          "internalType": "uint256[]",
          "name": "",
          "type": "uint256[]"
        }
      ],
      "stateMutability": "view",
      "type": "function"
    },
    {
      "inputs": [],
      "name": "getTotalWaves",
      "outputs": [
        {
          "internalType": "uint256",
          "name": "",
          "type": "uint256"
        }
      ],
      "stateMutability": "view",
      "type": "function"
    },
    {
      "inputs": [],
      "name": "wave",
      "outputs": [],
      "stateMutability": "nonpayable",
      "type": "function"
    },
    {
      "inputs": [
        {
          "internalType": "uint256",
          "name": "",
          "type": "uint256"
        }
      ],
      "name": "wavedAddresses",
      "outputs": [
        {
          "internalType": "address",
          "name": "",
          "type": "address"
        }
      ],
      "stateMutability": "view",
      "type": "function"
    }
  ],
  "bytecode": "0x60806040523480156200001157600080fd5b506200004160405180606001604052806025815260200162000e2e602591396200004760201b620005921760201c565b620001db565b620000e7816040516024016200005e919062000154565b6040516020818303038152906040527f41304fac000000000000000000000000000000000000000000000000000000007bffffffffffffffffffffffffffffffffffffffffffffffffffffffff19166020820180517bffffffffffffffffffffffffffffffffffffffffffffffffffffffff8381831617835250505050620000ea60201b60201c565b50565b60008151905060006a636f6e736f6c652e6c6f679050602083016000808483855afa5050505050565b6000620001208262000178565b6200012c818562000183565b93506200013e81856020860162000194565b6200014981620001ca565b840191505092915050565b6000602082019050818103600083015262000170818462000113565b905092915050565b600081519050919050565b600082825260208201905092915050565b60005b83811015620001b457808201518184015260208101905062000197565b83811115620001c4576000848401525b50505050565b6000601f19601f8301169050919050565b610c4380620001eb6000396000f3fe608060405234801561001057600080fd5b506004361061004c5760003560e01c8063117c5564146100515780636fe15b44146100705780639a2cdc081461007a578063a9b5b4b714610098575b600080fd5b6100596100c8565b604051610067929190610946565b60405180910390f35b6100786103ac565b005b610082610508565b60405161008f91906109ff565b60405180910390f35b6100b260048036038101906100ad91906107a1565b610553565b6040516100bf919061092b565b60405180910390f35b606080600060028054905067ffffffffffffffff811115610112577f4e487b7100000000000000000000000000000000000000000000000000000000600052604160045260246000fd5b6040519080825280602002602001820160405280156101405781602001602082028036833780820191505090505b509050600060028054905067ffffffffffffffff81111561018a577f4e487b7100000000000000000000000000000000000000000000000000000000600052604160045260246000fd5b6040519080825280602002602001820160405280156101b85781602001602082028036833780820191505090505b50905060005b60028054905081101561039f5760028181548110610205577f4e487b7100000000000000000000000000000000000000000000000000000000600052603260045260246000fd5b9060005260206000200160009054906101000a900473ffffffffffffffffffffffffffffffffffffffff16838281518110610269577f4e487b7100000000000000000000000000000000000000000000000000000000600052603260045260246000fd5b602002602001019073ffffffffffffffffffffffffffffffffffffffff16908173ffffffffffffffffffffffffffffffffffffffff168152505060016000600283815481106102e1577f4e487b7100000000000000000000000000000000000000000000000000000000600052603260045260246000fd5b9060005260206000200160009054906101000a900473ffffffffffffffffffffffffffffffffffffffff1673ffffffffffffffffffffffffffffffffffffffff1673ffffffffffffffffffffffffffffffffffffffff16815260200190815260200160002054828281518110610380577f4e487b7100000000000000000000000000000000000000000000000000000000600052603260045260246000fd5b602002602001018181525050808061039790610b6d565b9150506101be565b5081819350935050509091565b60016000808282546103be9190610aa8565b925050819055506000600160003373ffffffffffffffffffffffffffffffffffffffff1673ffffffffffffffffffffffffffffffffffffffff168152602001908152602001600020541415610471576002339080600181540180825580915050600190039060005260206000200160009091909190916101000a81548173ffffffffffffffffffffffffffffffffffffffff021916908373ffffffffffffffffffffffffffffffffffffffff1602179055505b60018060003373ffffffffffffffffffffffffffffffffffffffff1673ffffffffffffffffffffffffffffffffffffffff16815260200190815260200160002060008282546104c09190610aa8565b925050819055506105066040518060400160405280600d81526020017f25732068617320776176656421000000000000000000000000000000000000008152503361062b565b565b600061054b6040518060400160405280601781526020017f5765206861766520256420746f74616c207761766573210000000000000000008152506000546106c7565b600054905090565b6002818154811061056357600080fd5b906000526020600020016000915054906101000a900473ffffffffffffffffffffffffffffffffffffffff1681565b610628816040516024016105a6919061097d565b6040516020818303038152906040527f41304fac000000000000000000000000000000000000000000000000000000007bffffffffffffffffffffffffffffffffffffffffffffffffffffffff19166020820180517bffffffffffffffffffffffffffffffffffffffffffffffffffffffff8381831617835250505050610763565b50565b6106c3828260405160240161064192919061099f565b6040516020818303038152906040527f319af333000000000000000000000000000000000000000000000000000000007bffffffffffffffffffffffffffffffffffffffffffffffffffffffff19166020820180517bffffffffffffffffffffffffffffffffffffffffffffffffffffffff8381831617835250505050610763565b5050565b61075f82826040516024016106dd9291906109cf565b6040516020818303038152906040527f9710a9d0000000000000000000000000000000000000000000000000000000007bffffffffffffffffffffffffffffffffffffffffffffffffffffffff19166020820180517bffffffffffffffffffffffffffffffffffffffffffffffffffffffff8381831617835250505050610763565b5050565b60008151905060006a636f6e736f6c652e6c6f679050602083016000808483855afa5050505050565b60008135905061079b81610bf6565b92915050565b6000602082840312156107b357600080fd5b60006107c18482850161078c565b91505092915050565b60006107d683836107fa565b60208301905092915050565b60006107ee838361090d565b60208301905092915050565b61080381610afe565b82525050565b61081281610afe565b82525050565b600061082382610a3a565b61082d8185610a75565b935061083883610a1a565b8060005b8381101561086957815161085088826107ca565b975061085b83610a5b565b92505060018101905061083c565b5085935050505092915050565b600061088182610a45565b61088b8185610a86565b935061089683610a2a565b8060005b838110156108c75781516108ae88826107e2565b97506108b983610a68565b92505060018101905061089a565b5085935050505092915050565b60006108df82610a50565b6108e98185610a97565b93506108f9818560208601610b3a565b61090281610be5565b840191505092915050565b61091681610b30565b82525050565b61092581610b30565b82525050565b60006020820190506109406000830184610809565b92915050565b600060408201905081810360008301526109608185610818565b905081810360208301526109748184610876565b90509392505050565b6000602082019050818103600083015261099781846108d4565b905092915050565b600060408201905081810360008301526109b981856108d4565b90506109c86020830184610809565b9392505050565b600060408201905081810360008301526109e981856108d4565b90506109f8602083018461091c565b9392505050565b6000602082019050610a14600083018461091c565b92915050565b6000819050602082019050919050565b6000819050602082019050919050565b600081519050919050565b600081519050919050565b600081519050919050565b6000602082019050919050565b6000602082019050919050565b600082825260208201905092915050565b600082825260208201905092915050565b600082825260208201905092915050565b6000610ab382610b30565b9150610abe83610b30565b9250827fffffffffffffffffffffffffffffffffffffffffffffffffffffffffffffffff03821115610af357610af2610bb6565b5b828201905092915050565b6000610b0982610b10565b9050919050565b600073ffffffffffffffffffffffffffffffffffffffff82169050919050565b6000819050919050565b60005b83811015610b58578082015181840152602081019050610b3d565b83811115610b67576000848401525b50505050565b6000610b7882610b30565b91507fffffffffffffffffffffffffffffffffffffffffffffffffffffffffffffffff821415610bab57610baa610bb6565b5b600182019050919050565b7f4e487b7100000000000000000000000000000000000000000000000000000000600052601160045260246000fd5b6000601f19601f8301169050919050565b610bff81610b30565b8114610c0a57600080fd5b5056fea264697066735822122032b2569f6451f7cb8fcc7a67927f15f274c87605c8ce1746306d00223f4b8c8664736f6c63430008040033596f20796f2c204920616d206120636f6e747261637420616e64204920616d20736d617274",
  "linkReferences": {},
  "deployedLinkReferences": {}
}