{
  "_format": "hh-sol-artifact-1",
  "contractName": "WavePortal",
  "sourceName": "contracts/WavePortal.sol",
  "abi": [
    {
      "inputs": [],
      "stateMutability": "nonpayable",
      "type": "constructor"
    },
    {
      "inputs": [],
      "name": "getTotalWaves",
      "outputs": [
        {
          "internalType": "uint256",
          "name": "",
          "type": "uint256"
        }
      ],
      "stateMutability": "view",
      "type": "function"
    },
    {
      "inputs": [],
      "name": "getWaveCount",
      "outputs": [],
      "stateMutability": "view",
      "type": "function"
    },
    {
      "inputs": [],
      "name": "wave",
      "outputs": [],
      "stateMutability": "nonpayable",
      "type": "function"
    }
  ],
  "bytecode": "0x608060405234801561001057600080fd5b5061003c6040518060600160405280602581526020016108e96025913961004160201b6101f41760201c565b6101c4565b6100dd816040516024016100559190610142565b6040516020818303038152906040527f41304fac000000000000000000000000000000000000000000000000000000007bffffffffffffffffffffffffffffffffffffffffffffffffffffffff19166020820180517bffffffffffffffffffffffffffffffffffffffffffffffffffffffff83818316178352505050506100e060201b60201c565b50565b60008151905060006a636f6e736f6c652e6c6f679050602083016000808483855afa5050505050565b600061011482610164565b61011e818561016f565b935061012e818560208601610180565b610137816101b3565b840191505092915050565b6000602082019050818103600083015261015c8184610109565b905092915050565b600081519050919050565b600082825260208201905092915050565b60005b8381101561019e578082015181840152602081019050610183565b838111156101ad576000848401525b50505050565b6000601f19601f8301169050919050565b610716806101d36000396000f3fe608060405234801561001057600080fd5b50600436106100415760003560e01c80631517c561146100465780636fe15b44146100505780639a2cdc081461005a575b600080fd5b61004e610078565b005b6100586100f9565b005b6100626101a9565b60405161006f91906105a4565b60405180910390f35b6100f76040518060400160405280601581526020017f2573206861732077617665642025732074696d6573000000000000000000000081525033600160003373ffffffffffffffffffffffffffffffffffffffff1673ffffffffffffffffffffffffffffffffffffffff1681526020019081526020016000205461028d565b565b600160008082825461010b91906105db565b9250508190555060018060003373ffffffffffffffffffffffffffffffffffffffff1673ffffffffffffffffffffffffffffffffffffffff168152602001908152602001600020600082825461016191906105db565b925050819055506101a76040518060400160405280600d81526020017f25732068617320776176656421000000000000000000000000000000000000008152503361032c565b565b60006101ec6040518060400160405280601781526020017f5765206861766520256420746f74616c207761766573210000000000000000008152506000546103c8565b600054905090565b61028a8160405160240161020891906104e4565b6040516020818303038152906040527f41304fac000000000000000000000000000000000000000000000000000000007bffffffffffffffffffffffffffffffffffffffffffffffffffffffff19166020820180517bffffffffffffffffffffffffffffffffffffffffffffffffffffffff8381831617835250505050610464565b50565b6103278383836040516024016102a593929190610536565b6040516020818303038152906040527f07c81217000000000000000000000000000000000000000000000000000000007bffffffffffffffffffffffffffffffffffffffffffffffffffffffff19166020820180517bffffffffffffffffffffffffffffffffffffffffffffffffffffffff8381831617835250505050610464565b505050565b6103c48282604051602401610342929190610506565b6040516020818303038152906040527f319af333000000000000000000000000000000000000000000000000000000007bffffffffffffffffffffffffffffffffffffffffffffffffffffffff19166020820180517bffffffffffffffffffffffffffffffffffffffffffffffffffffffff8381831617835250505050610464565b5050565b61046082826040516024016103de929190610574565b6040516020818303038152906040527f9710a9d0000000000000000000000000000000000000000000000000000000007bffffffffffffffffffffffffffffffffffffffffffffffffffffffff19166020820180517bffffffffffffffffffffffffffffffffffffffffffffffffffffffff8381831617835250505050610464565b5050565b60008151905060006a636f6e736f6c652e6c6f679050602083016000808483855afa5050505050565b61049681610631565b82525050565b60006104a7826105bf565b6104b181856105ca565b93506104c181856020860161066d565b6104ca816106cf565b840191505092915050565b6104de81610663565b82525050565b600060208201905081810360008301526104fe818461049c565b905092915050565b60006040820190508181036000830152610520818561049c565b905061052f602083018461048d565b9392505050565b60006060820190508181036000830152610550818661049c565b905061055f602083018561048d565b61056c60408301846104d5565b949350505050565b6000604082019050818103600083015261058e818561049c565b905061059d60208301846104d5565b9392505050565b60006020820190506105b960008301846104d5565b92915050565b600081519050919050565b600082825260208201905092915050565b60006105e682610663565b91506105f183610663565b9250827fffffffffffffffffffffffffffffffffffffffffffffffffffffffffffffffff03821115610626576106256106a0565b5b828201905092915050565b600061063c82610643565b9050919050565b600073ffffffffffffffffffffffffffffffffffffffff82169050919050565b6000819050919050565b60005b8381101561068b578082015181840152602081019050610670565b8381111561069a576000848401525b50505050565b7f4e487b7100000000000000000000000000000000000000000000000000000000600052601160045260246000fd5b6000601f19601f830116905091905056fea264697066735822122029b96d2b15977dfebd59b34744fa09898e1658dd6dc7798cadc5f6290c13685564736f6c63430008040033596f20796f2c204920616d206120636f6e747261637420616e64204920616d20736d617274",
  "linkReferences": {},
  "deployedLinkReferences": {}
}